:100000000C9418180C9449180C9449180C9449181D
:100010000C9449180C9449180C9449180C944918DC
:100020000C9449180C9449180C9449180C944918CC
:100030000C9449180C9449180C9449180C944918BC
:100040000C9449180C94007E0C9449180C9449188F
:100050000C9449180C9449180C94C9770C94496A6B
:100060000C9449180C94EC630C94E2630C944918BA
:100070000C9449180C9449180C9449180C9449187C
:100080000C9449180C9449180C9449180C9449186C
:100090000C9449180C9449180C9449180C9449185C
:1000A0000C9449180C9449180C9449180C9449184C
:1000B0000C9449180C9449180C9449180C9449183C
:1000C0000C9449180C9449180C9449180C9449182C
:1000D0000C9449180C9449180C9449180C9449181C
:1000E0000C944918084AD73B3BCE016E84BCBFFD37
:1000F000C12F3D6C74319ABD56833DDA3D00C77FF8
:1001000011BED9E4BB4C3E916BAAAABE0000008090
:100110003F05A84CCDB2D44EB93836A9020C50B91F
:10012000918688083CA6AAAA2ABE000000803F004B
:100130004E414E494E495459494E46CDCCCC3D0ACC
:10014000D7233C17B7D13877CC2B329595E6241FAF
:10015000B14F0A000020410000C84200401C462068
:10016000BCBE4CCA1B0E5AAEC59D7400407A10F33B
:100170005A00A0724E18090010A5D4E80000E876D5
:1001800048170000E40B54020000CA9A3B0000002C
:10019000E1F505000080969800000040420F000045
:1001A00000A08601000000102700000000E8030006
:1001B0000000006400000000000A000000000001D0
:1001C00000000000002C76D888DC674F0823DFC1D0
:1001D000DFAE59E1B1B796E5E3E453C63AE651998B
:1001E0007696E8E6C28426EB898C9B62ED407C6FB4
:1001F000FCEFBC9C9F40F2BAA56FA5F490055A2A6B
:10020000F75C936B6CF9676DC11BFCE0E40D47FE76
:10021000F520E6B500D0ED902E030094357705006B
:1002200080841E080000204E0A000000C80C3333F2
:1002300033330F986E12831141EF8D2114893BE601
:100240005516CFFEE6DB18D1844B381BF77C1D908A
:100250001DA4BBE424203284725E228100C9F124F3
:10026000ECA1E53D275072696E742050617573658D
:1002700064004572726F722077726974696E6720CC
:10028000746F20454550524F4D210A0039383E20A9
:1002900011103024362F372217161809410207454E
:1002A00009080001627573793A207061757365649D
:1002B00020666F7220696E7075740A0062757379BA
:1002C0003A2070617573656420666F72207573657E
:1002D000720A00627573793A2070726F6365737386
:1002E000696E670A0053544F505045442E20005009
:1002F00072696E7465722073746F707065642064C7
:10030000756520746F206572726F72732E20466956
:100310007820746865206572726F7220616E642047
:10032000757365204D39393920746F207265737487
:100330006172742E202854656D70657261747572D7
:10034000652069732072657365742E20536574206F
:100350006974206166746572207265737461727469
:10036000696E67290A004E6F20436865636B737579
:100370006D2077697468206C696E65206E756D629A
:1003800065722C204C617374204C696E653A2000B4
:100390004E6F20436865636B73756D207769746871
:1003A000206C696E65206E756D6265722C204C61E3
:1003B0007374204C696E653A2000636865636B73E3
:1003C000756D206D69736D617463682C204C617369
:1003D00074204C696E653A20004C696E65204E753C
:1003E0006D626572206973206E6F74204C61737446
:1003F000204C696E65204E756D6265722B312C2024
:100400004C617374204C696E653A20004D31313077
:10041000004D313137004D33310053442072656156
:1004200064206572726F720A004D3020533138308B
:100430003000446F6E65207072696E74696E67205B
:1004400066696C650A002121204B494C4C20636190
:100450007573656420627920746F6F206D756368B1
:1004600020696E6163746976652074696D65202DFD
:100470002063757272656E7420636F6D6D616E645A
:100480003A2000506C656173652052657365740095
:100490005052494E5445522048414C544544002541
:1004A000533A202553004B494C4C45442E200050D4
:1004B00072696E7465722068616C7465642E206B5D
:1004C000696C6C28292063616C6C6564210A006585
:1004D00063686F3A004572726F723A00486F6D65DB
:1004E00020257325732573204669727374000A0AE8
:1004F000426564204C6576656C20436F727265635B
:1005000074696F6E204D61747269783A00332D7092
:100510006F696E742070726F62696E6720646F6EAF
:10052000652E0A0069646C650A00206F6620007001
:100530006F696E7420004D616E75616C20473239B1
:1005400020004D616E75616C204732392061626F09
:10055000727465640A00202844525952554E29008D
:10056000473239204175746F20426564204C6576AE
:10057000656C696E67003F2856296572626F736506
:10058000206C6576656C20696D706C61757369624D
:100590006C652028302D34292E0A0020496E7661A2
:1005A0006C696420657874727564657220004361BB
:1005B000703A00220A00656E7175657565696E672F
:1005C0002022006F6B00526573656E643A20002331
:1005D000646566696E652044454641554C545F002C
:1005E0004B6420004B6920004B7020005049442090
:1005F0004175746F74756E652066696E69736865A0
:1006000064212050757420746865206C61737420B7
:100610004B702C204B6920616E64204B6420636F0B
:100620006E7374616E74732066726F6D2062656C98
:100630006F7720696E746F20436F6E66696775729D
:100640006174696F6E2E680A0050494420417574C8
:100650006F74756E65206661696C656421207469CC
:100660006D656F75740A00546865726D616C205217
:10067000756E617761790048656174696E6720669F
:1006800061696C656400504944204175746F7475EC
:100690006E65206661696C6564212054656D7065C6
:1006A00072617475726520746F6F20686967680A7B
:1006B00000204B643A2000204B693A2000204B7008
:1006C0003A20000A20436C617373696320504944E7
:1006D000200A002054753A2000204B753A20002053
:1006E0006D61783A2000206D696E3A200020643AEE
:1006F000200020626961733A20005049442041750E
:10070000746F74756E652073746172740A00504959
:1007100044204175746F74756E65206661696C65FF
:1007200064212054656D7065726174757265207402
:100730006F6F20686967680A0050494420417574EA
:100740006F74756E65206661696C65642120426115
:1007500064206578747275646572206E756D62656B
:10076000720A00A10000006900A20000006300B04E
:100770000000000900C10000004100C2000000416B
:1007800000C30000004100C40000004100C500009B
:10079000004100C60000004145C70000004300C8FA
:1007A0000000004500C90000004500CD00000049E0
:1007B00000D10000004E00D50000004F00D6000020
:1007C000004F00D70000007800DC0000005500DD7D
:1007D0000000005900E00000006100E1000000613D
:1007E00000E20000006100E30000006100E400009E
:1007F000006100E50000006100E60000006165E7BF
:100800000000006300E80000006500E900000065EA
:1008100000EA0000006500EB0000006500EC00004D
:10082000006900ED0000006900EE0000006900EFC3
:100830000000006900F10000006E00F20000006F8F
:1008400000F30000006F00F40000006F00F50000EE
:10085000006F00F60000006F00F80000006F00F964
:100860000000007500FA0000007500FB0000007534
:1008700000FC0000007500FD0000007900FF000092
:10088000007900040100004100050100006100063C
:1008900001000043000701000063000C0100004359
:1008A000000D01000063000E01000044000F010074
:1008B0000064001101000064001901000065001FC0
:1008C00001000067003001000049003101000069AB
:1008D00000410100004C00420100006C0043010097
:1008E000004E00440100006E00480100006E0059F7
:1008F00001000072005A01000053005B0100007308
:10090000005F0100007300600100005300610100FE
:100910000073006501000074006F01000075007C29
:100920000100007A007D0100005A007E0100007A7B
:1009300000920100006600E30200007800840300DA
:100940000027008503000027008603000041008780
:100950000300002E008803000045008903000048C2
:10096000008A03000049008C0300004F008E030042
:100970000059008F0300004F0090030000690091B0
:100980000300004100920300004200930300005462
:100990000094030000340095030000450096030016
:1009A000005A0097030000480098030000300099A7
:1009B00003000049009A0300004B009B0300005E07
:1009C000009C0300004D009D0300004E009E0300AC
:1009D0000033009F0300004F00A00300006E00A141
:1009E0000300005000A30300004500A403000054CE
:1009F00000A50300005900A60300007000A7030033
:100A0000005800A80300005000A90300004F00AAEE
:100A10000300004900AB0300005900AC0300006173
:100A200000AD0300006500AE0300006E00AF0300E0
:100A3000006900B00300007600B10300006100B25D
:100A40000300004200B30300007600B4030000641A
:100A500000B50300006500B60300005A00B70300AC
:100A6000006E00B80300003000B90300006900BA4E
:100A70000300006B00BB0300004C00BC03000075CA
:100A800000BD0300007600BE0300006500BF030048
:100A9000006F00C00300006E00C10300007000C2C0
:100AA0000300006300C30300006F00C40300007470
:100AB00000C50300007600C60300007000C70300F5
:100AC000005800C80300005700C90300007700CA9F
:100AD0000300006900CB0300007600CC0300006F28
:100AE00000CD0300007600CE030000770001040073
:100AF00000450010040000410011040000620012D3
:100B000004000042001304000054001404000051CB
:100B100000150400004500160400002A0017040018
:100B2000004500180400004E00190400004E001A91
:100B30000400004B001B04000054001C0400004D86
:100B4000001D04000048001E0400004F001F0400A8
:100B5000006E002004000050002104000043002229
:100B60000400005400230400005900240400006F16
:100B7000002504000058002604000055002704004A
:100B80000079002804000057002904000057002ABB
:100B900004000062002B040000627C2C0400006250
:100BA000002D04000065002E0400007C4F2F04007F
:100BB00000397C300400006100310400003600324E
:100BC000040000420033040000720034040000619D
:100BD00000350400006500360400002A00370400D8
:100BE0000065003804000075003904000075003A03
:100BF0000400006B003B0400006E003C0400006D2C
:100C0000003D04000048003E0400006F003F040067
:100C1000006E0040040000700041040000630042C8
:100C200004000074004304000079004404000071D3
:100C30007045040000780046040000750047040079
:100C40000079004804000077004904000077004A5A
:100C500004000062004B040000627C4C040000624F
:100C6000004D04000065004E0400007C6F4F04003E
:100C7000006700510400006500222000002E001EC5
:100C8000210000507822210000544D902100003CAA
:100C90002D922100002D3EB02100000300BB210059
:100CA0000004003C2200007E00482200007E3D60DF
:100CB000220000213D612200003D00642200003C32
:100CC0003D652200003E3DF12300000700A03000FA
:100CD000003D0021F301000200C2F401000500A262
:100CE000000000EC00B0000000DF00E4000000E1C4
:100CF00000F6000000EF00F7000000FD00FC00001F
:100D000000F500E3020000EB0087030000A5008F60
:100D1000030000F40098030000F2009E030000E3CB
:100D200000A3030000F600A9030000F400AC0300D8
:100D300000E000AD030000E300B1030000E000B2FA
:100D4000030000E200B5030000E300B8030000F276
:100D500000BC030000E400BE030000E300C0030089
:100D600000F700C1030000E600C3030000E50090A7
:100D70002100007F00922100007E001A220000E87E
:100D8000001E220000F30088250000FF0002300052
:100D900000A1000C300000A2000D300000A3009B59
:100DA000300000DE009C300000DF00A03000003D7D
:100DB00000A1300000A700A2300000B100A3300065
:100DC00000A800A4300000B200A5300000A900A6D1
:100DD000300000B300A7300000AA00A8300000B423
:100DE00000A9300000AB00AA300000B500AB300015
:100DF00000B600AC300000B6DEAD300000B700AE8B
:100E0000300000B7DEAF300000B800B0300000B8EE
:100E1000DEB1300000B900B2300000B9DEB33000FE
:100E200000BA00B4300000BADEB5300000BB00B636
:100E3000300000BBDEB7300000BC00B8300000BCA2
:100E4000DEB9300000BD00BA300000BDDEBB3000AE
:100E500000BE00BC300000BEDEBD300000BF00BEE2
:100E6000300000BFDEBF300000C000C0300000C056
:100E7000DEC1300000C100C2300000C1DEC330005E
:100E800000AF00C4300000C200C5300000C2DEC6A2
:100E9000300000C300C7300000C3DEC8300000C40B
:100EA00000C9300000C4DECA300000C500CB3000ED
:100EB00000C600CC300000C700CD300000C800CE16
:100EC000300000C900CF300000CA00D0300000CA96
:100ED000DED1300000CADFD2300000CB00D33000BA
:100EE00000CBDED4300000CBDFD5300000CC00D604
:100EF000300000CCDED7300000CCDFD8300000CD91
:100F000000D9300000CDDEDA300000CDDFDB30006C
:100F100000CE00DC300000CEDEDD300000CEDFDEB3
:100F2000300000CF00DF300000D000E0300000D102
:100F300000E1300000D200E2300000D300E33000D6
:100F400000AC00E4300000D400E5300000AD00E665
:100F5000300000D500E7300000AE00E8300000D6D9
:100F600000E9300000D700EA300000D800EB300084
:100F700000D900EC300000DA00ED300000DB00EFBB
:100F8000300000DC00F2300000A600F3300000DD8D
:100F900000F4300000B3DEF7300000DCDEFA300091
:100FA00000A6DEFB300000A500FC300000B000FD14
:100FB000300000A400074E0000FB0086510000FC3A
:100FC0000043530000FA0064FF0000A40065FF0026
:100FD00000A50066FF0000A60067FF0000A70068EC
:100FE000FF0000A80069FF0000A9006AFF0000AA36
:100FF000006BFF0000AB006CFF0000AC006DFF0059
:1010000000AD006EFF0000AE006FFF0000AF00708B
:10101000FF0000B00071FF0000B10072FF0000B2DD
:101020000073FF0000B30074FF0000B40075FF0000
:1010300000B50076FF0000B60077FF0000B700782B
:10104000FF0000B80079FF0000B9007AFF0000BA85
:10105000007BFF0000BB007CFF0000BC007DFF00A8
:1010600000BD007EFF0000BE007FFF0000BF0080CB
:10107000FF0000C00081FF0000C10082FF0000C22D
:101080000083FF0000C30084FF0000C40085FF0050
:1010900000C50086FF0000C60087FF0000C700886B
:1010A000FF0000C80089FF0000C9008AFF0000CAD5
:1010B000008BFF0000CB008CFF0000CC008DFF00F8
:1010C00000CD008EFF0000CE008FFF0000CF00900B
:1010D000FF0000D00091FF0000D10092FF0000D27D
:1010E0000093FF0000D30094FF0000D40095FF00A0
:1010F00000D50096FF0000D60097FF0000D70098AB
:10110000FF0000D80099FF0000D9009AFF0000DA24
:10111000009BFF0000DB009CFF0000DC009DFF0047
:1011200000DD009EFF0000DE009FFF0000DF00E505
:10113000FF00005C0046696C2E204469612E00456A
:1011400020696E206D6DC2B3002002204661637479
:10115000002002204D6178002002204D696E004F72
:101160006666004F6E004175746F74656D70004166
:101170006476616E6365642053657474696E677329
:101180000046696C616D656E740054656D706572C2
:10119000617475726500436F6E666967757261741C
:1011A000696F6E004C6576656C696E6720446F6E82
:1011B0006521004D6F7665205A004732392056313F
:1011C000004E65787420506F696E74002569202F79
:1011D0002025750047323920563100436C69636B16
:1011E00020746F20426567696E0053746F726520CA
:1011F00053657474696E6773004C6F616420536546
:101200007474696E6773004F6666004F6E004265C6
:1012100064204C6576656C696E67004C6576656C1C
:1012200020426564004D6F74696F6E004C6F61649D
:101230002053657474696E677300526573746F72BE
:1012400065206661696C736166650053746F7265D1
:101250002053657474696E67730044656C74612013
:1012600043616C6962726174696F6E00416476619A
:101270006E6365642053657474696E6773004D61B5
:10128000696E00486F6D696E672058595A0044694D
:10129000616720526F6400547A00547900547800DA
:1012A00052616469757300457A004579004578009C
:1012B0004865696768740044656C74612043616CBB
:1012C0006962726174696F6E0043616C6962726118
:1012D00074652043656E7465720043616C69627267
:1012E000617465205A0043616C69627261746520A3
:1012F000590043616C6962726174652058004175E0
:10130000746F20486F6D650044656C74612053658F
:101310007474696E6773004D61696E003F004261CD
:10132000636B0053746F70005072696E7420667244
:101330006F6D20534400436F6E6669677572617408
:10134000696F6E0054656D706572617475726500C9
:101350004D6F74696F6E00526573756D65205072C4
:10136000696E74004E6F2053440054756E650053CF
:10137000746F70205072696E7400506175736520CF
:101380005072696E7400496E666F205363726565B2
:101390006E003F005374617274205072696E740065
:1013A00043616E63656C005072696E740043616ED8
:1013B0006E6F7420656E74657220737562646972F5
:1013C0003A2000052E2E004D61696E00467265655B
:1013D000205859004D6F74696F6E004D38340044C9
:1013E000697361626C652053746570706572730017
:1013F000426564204C6576656C696E6700473238DB
:10140000004175746F20486F6D65004D61696E0015
:101410005072656865617420504C4120456E6400CF
:101420005072656865617420504C412042656400CB
:10143000507265686561742041425320456E6400B6
:1014400050726568656174204142532042656400B2
:1014500054656D706572617475726500436F6F6C71
:10146000646F776E00507265686561742041425305
:10147000005072656865617420504C410046616E91
:10148000205370656564203D00426564004E6F7AAC
:101490007A6C65004D61696E00466C6F770046613D
:1014A0006E205370656564203D00426564004E6F98
:1014B0007A7A6C65005370656564004D61696E00F1
:1014C0002568753A25303268750025303268753ADE
:1014D0002530326875002D2D2D005344002020202A
:1014E0002020202000202020200053442052656D21
:1014F0006F76656400534420496E73657274656449
:10150000004B494D534F4E2D443320526561647951
:101510002E005072696E74696E672E2E2E00507206
:10152000696E742041626F72746564004D6F7669F4
:101530006E672E2E2E004D3235005061757365207A
:101540005072696E7400290A002062797465733BD9
:1015500020637263200053657474696E677320534F
:10156000746F726564202800454550524F4D2064C9
:1015700061746173697A65206572726F722E0A00F8
:10158000290A002062797465733B2063726320002E
:101590002073746F7265642073657474696E677309
:1015A000207265747269657665642028002028635E
:1015B000616C63756C6174656429210A0020213DAA
:1015C0002000454550524F4D20435243206D6973D2
:1015D0006D61746368202D202873746F72656429AF
:1015E00020002053697A653A2000496E6465783A94
:1015F0002000204D61726C696E3D563734290A0017
:10160000454550524F4D2076657273696F6E206D5F
:1016100069736D617463682028454550524F4D3D94
:101620000048617264636F64656420446566617537
:101630006C742053657474696E6773204C6F6164B9
:1016400065640A000000964300009643000096433C
:10165000000034420000A0420000A0420000A0426E
:1016600048E1C0428813000088130000881300007E
:101670002823000020440020490020204D33303131
:101680002050005049442073657474696E67733A42
:101690000A0020460020420020480020204D31341E
:1016A000352053004D6174657269616C2068656115
:1016B00074757020706172616D65746572733A0A39
:1016C0000020530020480020520020204D3636359F
:1016D000204C0044656C74612073657474696E6796
:1016E000733A204C3C646961676F6E616C5F726F26
:1016F000643E20523C7261646975733E20483C68C8
:1017000065696768743E20533C7365676D656E74E8
:10171000735F7065725F733E2058595A3C746F77DF
:10172000657220616E676C6520636F7272656374A9
:10173000696F6E733E0A0020204D36363620580001
:10174000456E6473746F702061646A7573746D653F
:101750006E743A0A0020204D343230205300417517
:10176000746F20426564204C6576656C696E673ADB
:101770000A0020540020530020204D3230352042F2
:101780000020453C6D61785F655F6A65726B3E0065
:1017900020583C6D61785F785F6A65726B3E2059B6
:1017A0003C6D61785F795F6A65726B3E205A3C6D73
:1017B00061785F7A5F6A65726B3E00416476616E44
:1017C0006365643A20423C6D696E5F7365676D6561
:1017D0006E745F74696D655F75733E20533C6D690F
:1017E0006E5F66656564726174653E20543C6D6928
:1017F0006E5F74726176656C5F6665656472617454
:10180000653E0020540020520020204D323034200C
:101810005000416363656C65726174696F6E202866
:10182000756E6974732F7332293A20503C70726957
:101830006E745F616363656C3E20523C72657472C6
:101840006163745F616363656C3E20543C747261D4
:1018500076656C5F616363656C3E0A0020204D32E3
:1018600030312058004D6178696D756D204163639A
:10187000656C65726174696F6E2028756E6974732A
:101880002F7332293A0A0020204D3230332058007D
:101890004D6178696D756D2066656564726174650A
:1018A000732028756E6974732F73293A0A00537474
:1018B0006570732070657220756E69743A0A002035
:1018C000204D3230302044300A0020204D3230305C
:1018D0002044002044697361626C65640A004669B3
:1018E0006C616D656E742073657474696E67733AAC
:1018F0000020204D3134392043203B20556E69743F
:101900007320696E2043656C736975730A00202823
:101910006D6D29002020473231202020203B2055AA
:101920006E69747320696E206D6D00486F6D696E0D
:1019300067204661696C6564006F70656E00545283
:1019400049474745524544003A20007A5F6D617827
:1019500000795F6D617800785F6D61780052657025
:101960006F7274696E6720656E6473746F70207334
:1019700074617475730A0020433A0020423A0020D3
:10198000436F756E7420413A0020453A00205A3A60
:101990000020593A00583A000000E6420000E642B2
:1019A000000066430000E6C20000E6C2000000003E
:1019B00020746F6F206C6F6E67206578747275731A
:1019C000696F6E2070726576656E7465640A0020BA
:1019D000636F6C6420657874727573696F6E2070C4
:1019E000726576656E7465640A005761726E696E21
:1019F000673A20486F6D696E672042756D702044AC
:101A0000697669736F72203C20310A000A0A0A0065
:101A100000A0400000A0400000A04000006643007D
:101A20000066430000664301010124F4D43050C332
:101A30008E20C2A24017828B7011127A910D816C98
:101A4000D90AA861E108C7586607615143061E4BD1
:101A50005D05C145A7041A411104093D9803713978
:101A600031034036DB0265339102D4305402802EBC
:101A70001D02632CEE01752AC501B028A0011027B4
:101A800081018F2564012B244B01E0223401AC211C
:101A90001F018D200D01801FFC00841EED00971D8D
:101AA000DF00B81CD200E61BC600201BBC00641A75
:101AB000B200B219A8000A19A0006A189900D1173B
:101AC000910040178B00B516840031167E00B315C7
:101AD00079003A157300C7146F0058146A00EE13AA
:101AE00066008813630025135E00C7125B006C124A
:101AF000570015125400C111510070114F002111EF
:101B00004B00D61049008D104700461044000210CB
:101B10004200C00F4000800F3E00420F3C00060F05
:101B20003B00CB0E3800930E37005C0E3500270EBD
:101B30003400F30D3200C10D3100900D3000600D06
:101B40002E00320D2D00050D2C00D90C2B00AE0CF3
:101B50002900850C29005C0C2700350C27000E0C91
:101B60002600E80B2400C40B2400A00B23007D0BEF
:101B700023005A0B2100390B2100180B2000F80A12
:101B80001F00D90A1E00BB0A1E009D0A1D00800A04
:101B90001D00630A1C00470A1B002C0A1B00110AC7
:101BA0001A00F7091A00DD091900C4091900AB0968
:101BB0001900920917007B091800630917004C09E6
:101BC000160036091600200916000A091500F50846
:101BD0001500E0081400CC081400B8081400A4088C
:101BE0001400900813007D0812006B0813005808B9
:101BF00012004608120034081100230811001208D0
:101C0000110001081100F0071000E0071000D007D4
:101C10001000C0071000B0070F00A10710009107C7
:101C20000E0083070F0074070F0065070E005707AB
:101C30000E0049070E003B070D002E070E0020077F
:101C40000D0013070D0006070D00F9060C00ED0648
:101C50000D00E0060C00D4060C00C8060C00BC0603
:101C60000C00B0060C00A4060B0099060C008D06B3
:101C70000B0082060B0077060B006C060B0061065A
:101C80000A0057060B004C060A0042060A003806F6
:101C90000A002E060A0024060A001A060A00100688
:101CA000090007060A00FD050900F4050900EB0517
:101CB0000900E2050900D9050900D0050900C7059A
:101CC0000900BE050900B5050800AD050800A50519
:101CD00009009C050800940508008C05080084058F
:101CE00008007C050800740508006C050700650500
:101CF00008005D050700560508004E05070047056A
:101D000007004005080038050700310507002A05CF
:101D10000700230507001C050600160507000F0530
:101D200007000805060002050700FB040600F5048D
:101D30000700EE040600E8040600E2040700DB04E6
:101D40000600D5040600CF040600C9040600C3043B
:101D50000600BD040600B7040600B1040500AC048B
:101D60000600A6040600A00405009B0406009504D6
:101D70000500900406008A0405008504050080041F
:101D800006007A04050075040500700405006B0464
:101D9000050066040500610405005C0405005704A5
:101DA0000500520405004D040500480405004304E5
:101DB00005003E0404003A04050035040500300423
:101DC00004002C04050027040400230405001E045D
:101DD00004001A04040016040500110404000D0494
:101DE0000400090405000404040000040400FC03CA
:101DF0000400F8030400F4030400F0030400EC03FF
:101E00000400E8030400E4030400E0030400DC032E
:101E10000400D8030400D4030400D0030400CC035E
:101E20000400C8030300C503030024F404D9201BE5
:101E3000C40C5C0E9804C4095F0265077101F405C7
:101E4000F900FB04B30048048700C103690058038C
:101E5000550003034500BE023A00840231005302DC
:101E60002A002902250004022000E4011C00C80108
:101E70001900AF01170098011400840113007101CB
:101E800010006101100051010E0043010D003601E8
:101E90000B002B010B0020010B00150109000C01A8
:101EA000090003010800FB000800F3000800EB0034
:101EB0000700E4000600DE000600D8000600D2009D
:101EC0000600CC000500C7000500C2000500BD00EB
:101ED0000400B9000400B5000400B1000400AD0026
:101EE0000400A9000400A5000300A20003009F0055
:101EF00004009B000300980003009500020093007B
:101F00000300900003008D0002008B000300880096
:101F100002008600020084000300810002007F00AE
:101F200002007D0002007B000200790002007700C1
:101F300001007600020074000200720001007100CE
:101F400002006F0002006D0001006C0002006A00D8
:101F500001006900020067000100660001006500E1
:101F600001006400020062000100610001006000E5
:101F700001005F0002005D0001005C0001005B00E9
:101F800001005A00010059000100580001005700EB
:101F900001005600010055000100540001005300EB
:101FA00000005300010052000100510001005000E8
:101FB00001004F0001004E0000004E0001004D00E6
:101FC00001004C0001004B0000004B0001004A00E2
:101FD00001004900010048000000480001004700DE
:101FE00001004600000046000100450000004500D9
:101FF00001004400010043000000430001004200D2
:1020000000004200010041000000410001004000CA
:1020100001003F0000003F0001003E0000003E00C4
:1020200001003D0000003D0001003C0000003C00BC
:1020300000003C0001003B0000003B0001003A00B2
:1020400000003A00010039000000390001003800AA
:1020500000003800000038000100370000003700A1
:102060000100360000003600000036000100350097
:10207000000035000000350001003400000034008D
:102080000000340001003300000033000000330082
:102090000100320000003200000032000100310077
:1020A000000031000000310001003000000030006D
:1020B0000000300001002F0000002F0000002F0062
:1020C00000002F0001002E0000002E0000002E0056
:1020D00001002D0000002D0000002D0000002D004B
:1020E00001002C0000002C0000002C0000002C003F
:1020F00001002B0000002B0000002B0000002B0033
:1021000001002A0000002A0000002A0000002A0026
:10211000010029000000290000002900000029001A
:10212000000029000100280000002800000028000D
:102130000000280000002800010027000000270000
:1021400000002700000027000000270001002600F3
:1021500000002600000026000000260000002600E7
:1021600001002500000025000000250000002500DA
:1021700000002500000025000100240000002400CC
:1021800000002400000024000000240001002300BF
:1021900000002300000023000000230000002300B3
:1021A00000002300000023000100220000002200A4
:1021B0000000220000002200000022000000220097
:1021C000010021000000210000002100000021008A
:1021D000000021000000210000002100010020007B
:1021E000000020000000200000002000000020006F
:1021F00000002000000020000000200001001F005F
:1022000000001F0000001F0000001F0000001F0052
:1022100000001F0000001F0001001E0000001E0043
:1022200000001E0000001E000000043700001E29F0
:102230000000511B00005810000010090000CC04E1
:102240000000780200004101000000426564004582
:102250003100626564002C2073797374656D20739E
:10226000746F7070656421204865617465725F49A0
:10227000443A200048656174696E67206661696C44
:10228000656400546865726D616C2052756E61778B
:1022900061790048656174696E67204661696C65A3
:1022A000640048656174696E67206661696C656485
:1022B00000546865726D616C2052756E617761794A
:1022C0000010003003B000870150014701F00126E3
:1022D000019002100130030001D003F3007004E903
:1022E000001005E000B005D8005006D200F006CC82
:1022F000009007C6003008C200D008BD007009B9C0
:1023000000100AB500B00AB200500BAE00F00BABE3
:1023100000900CA800300DA500D00DA200700EA0FA
:1023200000100F9D00B00F9B0050109800F0109609
:10233000009011940030129200D012900070138E11
:102340000010148C00B0148A0050158800F0158716
:10235000009016850030178300D017810070188018
:102360000010197E00B0197D00501A7B00F01A7A17
:1023700000901B7800301C7700D01C7500701D7415
:1023800000101E7200B01E7100501F6F00F01F6E13
:102390000090206C0030216B00D0216A0070226810
:1023A0000010236700B023660050246400F024630B
:1023B000009025620030266000D0265F0070275D07
:1023C0000010285C00B0285B0050295900F0295803
:1023D00000902A5700302B5500D02B5400702C52FF
:1023E00000102D5100B02D5000502E4E00F02E4DFB
:1023F00000902F4B0030304A00D0304800703146FA
:102400000010324500B032430050334100F03340F9
:102410000090343E0030353C00D0353A00703638FC
:102420000010373600B037340050383200F0382F03
:102430000090392D00303A2A00D03A2700703B2412
:1024400000103C2000B03C1C00503D1700F03D1136
:1024500000903E0A00303F9CFF544845524D414C8D
:102460002052554E4157415900546865726D616C58
:102470002052756E61776179004572723A204D4144
:102480005854454D50004D415854454D502074729C
:1024900069676765726564004572723A204D494EFE
:1024A00054454D50004D494E54454D50207472696D
:1024B000676765726564004D383420582059205A8A
:1024C000204500202F002042403A0020403A007C66
:1024D0003C3E5E2B3D3F2F5B5D3B2C2A225C004344
:1024E000616E6E6F74206F70656E207375626469C3
:1024F00072200053442063617264206F6B0A006F86
:1025000070656E526F6F74206661696C65640A0055
:10251000766F6C756D652E696E6974206661696C85
:1025200065640A00534420696E6974206661696CB1
:102530000A004D3234004D32332025730046696C59
:10254000652073656C65637465640A002053697A5D
:10255000653A200046696C65206F70656E65643A67
:102560002000454E4420535542524F5554494E4544
:102570000A002220706F73002220706172656E74F1
:102580003A2200535542524F5554494E452043413B
:102590004C4C207461726765743A220074727969D8
:1025A0006E6720746F2063616C6C207375622D6799
:1025B000636F64652066696C657320776974682051
:1025C000746F6F206D616E79206C6576656C732E0B
:1025D000204D4158206C6576656C2069733A310A4C
:1025E000002E0A006F70656E206661696C65642C50
:1025F0002046696C653A200057726974696E6720DD
:10260000746F2066696C653A2000667265736800B5
:10261000646F696E67002066696C653A20004E6FD2
:1026200077200000002100240027002A002D003020
:1026300000330001010000040107010A010000222B
:1026400000250028002B002E00310034000201007C
:1026500000050108010B01000020002300260029CD
:10266000002C002F003200000100000301060109C8
:102670000105050505070508080808020202020A07
:102680000A08080404040401010101010101010315
:1026900003030303030303040707070C0C0C0C0CD0
:1026A0000C0C0C0202020206060606060606060BC3
:1026B0000B0B0B0B0B0B0B0102102020080810203A
:1026C00040102040800201020108040201010204BE
:1026D000081020408080402010080402018004027D
:1026E00001804020100804020108040201010204D4
:1026F0000810204080010204081020408000000AD9
:102700000B02090C0D0E0807030401000000000075
:1027100000000000000000000000000000000000B9
:102720000000000000000000001211100000000076
:102730000000000000000000000000000000000099
:102740000000002020506C616E6E657242756666F6
:10275000657242797465733A20002046726565207F
:102760004D656D6F72793A2000436F6D70696C65CD
:10277000643A204A616E20203620323032300A001E
:10278000204C61737420557064617465643A203222
:102790003031392D31322D3234207C20417574682E
:1027A0006F723A2028404C414E474B494D2C2064D3
:1027B000656661756C7420636F6E666967290A00CF
:1027C000322E302E310A004D61726C696E0020533A
:1027D0006F6674776172652052657365740A0020B4
:1027E0005761746368646F672052657365740A008B
:1027F0002042726F776E206F757420526573657416
:102800000A002045787465726E616C2052657365AC
:10281000740A00506F77657255700A0073746172A4
:10282000740A006175746F25632E670047323800A3
:102830006572726F722077726974696E6720746F47
:102840002066696C650A00446F6E65207361766965
:102850006E672066696C652E0A004D323900456E40
:102860006473746F707300255320256320256320E3
:10287000256320256300205A3A0020593A00205849
:102880003A00656E6473746F7073206869743A20DF
:1028900000434F4D4D554E49434154494F4E00441E
:1028A000525952554E004552524F525300494E46CE
:1028B0004F004543484F0010006003B000940150A2
:1028C000015101F0012E019002170130030401D0E3
:1028D00003F0007004E1001005DC00B005D20050E8
:1028E00006C800F006C3009007BE003008BA00D04A
:1028F00008B7007009B500100AB300B00AB1005063
:102900000BAF00F00BAD00900CAB00300DA800D069
:102910000DA600700EA300100FA000B00F9E005077
:10292000109B00F01099009011970030129500D084
:102930001293007013910010148F00B0148D00508A
:10294000158B00F01589009016870030178500D090
:102950001784007018820010198000B0197F005091
:102960001A7D00F01A7C00901B7A00301C7800D091
:102970001C7700701D7500101E7400B01E7300508F
:102980001F7100F01F700090206E0030216D00D08C
:10299000216B0070226A0010236900B02367005089
:1029A000246600F02464009025630030266200D085
:1029B00026600070275F0010285D00B0285C005082
:1029C000295B00F0295900902A5800302B5600D07E
:1029D0002B5500702C5400102D5200B02D5100507A
:1029E0002E4F00F02E4E00902F4C0030304A00D079
:1029F0003049007031470010324600B03244005078
:102A0000334200F033400090343F0030353D00D079
:102A1000353B007036390010373700B0373400507E
:102A2000383200F038300090392D00303A2A00D08A
:102A30003A2700703B2400103C2000B03C1C0050A2
:102A40003D1700F03D1100903E0A00303F9CFF4DC5
:102A50006F76652025736D6D00004D6F76652030B3
:102A60002E316D6D004D6F766520316D6D004D6FAF
:102A700076652031306D6D004D6F76652041786947
:102A80007300486F74656E6420746F6F20636F6CA1
:102A900064004578747275646572004D6F766520C8
:102AA0005A004D6F76652059004D6F7665205800AD
:102AB0005072696E742066726F6D20534400496EC7
:102AC00076616C69642065787472756465720A0059
:102AD000454550524F4D204F4B0A00426564204CF3
:102AE0006576656C696E6720004661696C65642077
:102AF000746F20656E61626C6520426564204C6570
:102B000076656C696E670A00426564204C6576657F
:102B10006C20436F7272656374696F6E204D6174CF
:102B20007269783A0064697300656E0043290A008F
:102B300061626C656420286D696E2074656D70201B
:102B400000436F6C642065787472756465732061EE
:102B50007265200020643A0020693A0020703A0033
:102B6000496E76616C69642065787472756465720B
:102B70000A0020466C6F773A20004F4646004F4EC1
:102B80000020580020204D61783A200020002020AD
:102B90004D696E3A2000536F667420656E647374DD
:102BA0006F70733A20002054002052004163636527
:102BB0006C65726174696F6E3A2050004D31343526
:102BC00020533C696E6465783E206F7574206F6693
:102BD0002072616E67652028302D31290A002F2F61
:102BE00020004348414D4245525F54454D504552A7
:102BF0004154555245004D4F54494F4E5F4D4F443F
:102C0000455300544845524D414C5F50524F544536
:102C10004354494F4E004155544F5245504F525422
:102C20005F53445F5354415455530050524F4D50DD
:102C3000545F535550504F525400454D45524745EF
:102C40004E43595F50415253455200434153455FF3
:102C50004C494748545F4252494748544E455353A4
:102C600000544F47474C455F4C4947485453005325
:102C70004F4654574152455F504F574552004255B9
:102C8000494C445F50455243454E54004C455645CF
:102C90004C494E475F44415441005A5F50524F42A5
:102CA00045004155544F4C4556454C005052494EF5
:102CB000545F4A4F420050524F47524553530041D0
:102CC00055544F5245504F52545F54454D50005645
:102CD0004F4C554D455452494300454550524F4D78
:102CE0000042494E4152595F46494C455F5452415A
:102CF0004E534645520053455249414C5F584F4E42
:102D00005F584F4646004649524D574152455F4E27
:102D1000414D453A4D61726C696E20322E302E3134
:102D200020284769744875622920534F55524345FE
:102D30005F434F44455F55524C3A68747470733A20
:102D40002F2F6769746875622E636F6D2F4D6172E6
:102D50006C696E4669726D776172652F4D61726C38
:102D6000696E2050524F544F434F4C5F564552535B
:102D7000494F4E3A312E30204D414348494E455F30
:102D8000545950453A4B494D534F4E2D44332045ED
:102D9000585452554445525F434F554E543A312092
:102DA000555549443A63656465326132662D343164
:102DB00061322D343734382D396231322D63353557
:102DC0006336326633363766660A004B494D534FD9
:102DD0004E2D4433204F46462E0042656420436FFB
:102DE0006F6C696E672E2E2E004265642048656107
:102DF00074696E672E2E2E004D3131332053004DF5
:102E00003131322053687574646F776E006F666677
:102E100000B228AD28A6289F28912844454255474E
:102E20003A006F6B0020573A00436F6F6C696E6712
:102E30002E2E2E0048656174696E672E2E2E004579
:102E40002025530050726F74656374656420506967
:102E50006E0A002569730025696D202569730025B8
:102E600069682025696D202569730025696420251E
:102E700069682025696D20256973002569792025F9
:102E80006964202569682025696D202569730050D3
:102E900072696E742074696D653A20002E0A0044D0
:102EA000656C6574696F6E206661696C65642C2061
:102EB00046696C653A200046696C652064656C65FE
:102EC0007465643A00286E6F2066696C652900435A
:102ED000757272656E742066696C653A20005344A1
:102EE000207072696E74696E672062797465200063
:102EF0004E6F74205344207072696E74696E670A55
:102F000000456E642066696C65206C6973740A0004
:102F1000426567696E2066696C65206C6973740A26
:102F2000004E6F204D6F76652E00436C69636B20F9
:102F3000746F20526573756D652E2E2E0000000093
:102F4000000000000000006643536C6565702E2E83
:102F50002E0047322F473320626164207061726116
:102F60006D65746572730A000000C8420000C842B3
:102F70000000C842220A00556E6B6E6F776E2063A8
:102F80006F6D6D616E643A20220020746F6F206C4B
:102F90006F6E6720657874727573696F6E207072DA
:102FA0006576656E7465640A0020636F6C642065E5
:102FB0007874727573696F6E2070726576656E7461
:102FC00065640A00204500205A00205900204D3930
:102FD000322058002E0A006F70656E206661696CA1
:102FE00065642C2046696C653A2000001C1F111195
:102FF0001F00000006191803130C00040E1F041C08
:10300000000000000E1315110E00001C101817050B
:10301000060500040A0A0A0A11110E0C12120C000D
:10302000000000001F1511151F00000033DF7BD9C1
:1030300011241FBECFEFD1E2DEBFCDBF00E00CBF39
:1030400013E0A0E0B2E0E8EAFDED01E00BBF02C052
:1030500007900D92A231B107D9F722E1A2E1B3E0C6
:1030600001C01D92A03AB207E1F718E1C7E1D8E12B
:1030700000E006C021970109802FFE010E943CEE6E
:10308000C631D10780E00807A9F70E94C5D90C9482
:10309000C3EE0C9400004F925F926F927F928F92DA
:1030A0009F92AF92BF92CF92DF92EF92FF92CF9317
:1030B000DF93CDB7DEB762970FB6F894DEBF0FBED1
:1030C000CDBF9A8B898BDB01FA012D913D914D91FA
:1030D0005C91139729833A834B835C8324813581E8
:1030E000468157812D833E834F83588714964D9098
:1030F0005D906D907C901797208131814281538142
:1031000029873A874B875C8718968D909D90AD9064
:10311000BC901B97C084D184E284F384A7019601FC
:10312000C301B2010E9419E56D877E878F87988B56
:10313000A50194016D817E818F8198850E9419E59A
:103140009B01AC016D857E858F8598890E943BEB44
:10315000E989FA896083718382839383A50194014D
:1031600069857A858B859C850E9419E54B015C01F8
:10317000A701960169817A818B819C810E9419E562
:103180009B01AC01C501B4010E943BEBE989FA89BE
:1031900064837583868397832D813E814F81588513
:1031A00069817A818B819C810E9419E56B017C0188
:1031B00029853A854B855C85C301B2010E9419E5DA
:1031C0009B01AC01C701B6010E943BEBE989FA897A
:1031D0006087718782879387CF0162960FB6F894D4
:1031E000DEBF0FBECDBFDF91CF91FF90EF90DF909C
:1031F000CF90BF90AF909F908F907F906F905F9097
:103200004F9008958F929F92AF92BF92CF92DF928C
:10321000EF92FF92CF93FC01C080D180E280F380D7
:1032200020E030E04AE754E4C701B6010E9419E506
:103230004B015C0120E030E0A901C701B6010E940A
:10324000B4E420E030E040EA50E487FF04C020E02E
:1032500030E040EA50ECC501B4010E943CEB20E0B4
:1032600030E040E251E40E9418EC0E9480EC6B01D7
:103270007C018BE2F7FE09C0F094E094D094C094F6
:10328000C11CD11CE11CF11C8DE28093A404C70178
:10329000B60120E137E240E050E00E9400EB8AE016
:1032A000882E912CA12CB12CCA01B901A501940141
:1032B0000E9400EB605D6093A504C701B60128EE93
:1032C00033E040E050E00E9400EBCA01B901A501E3
:1032D00094010E9400EB605D6093A604C701B601F3
:1032E00024E630E040E050E00E9400EBCA01B90162
:1032F000A50194010E9400EB605D6093A7048EE23B
:103300008093A804C701B601A50194010E9400EBB7
:10331000C62FCA01B901A50194010E9400EB605DAE
:103320006093A904C05DC093AA0484EA94E0CF919D
:10333000FF90EF90DF90CF90BF90AF909F908F90D5
:1033400008958F929F92AF92BF92CF92DF92EF92A9
:10335000FF92CF93C62FFC01C080D180E280F38022
:1033600020E030E44CE156E4C701B6010E9419E5C3
:103370004B015C0120E030E0A901C701B6010E94C9
:10338000B4E420E030E040EA50E487FF04C020E0ED
:1033900030E040EA50ECC501B4010E943CEB20E073
:1033A00030E040E251E40E9418EC0E9480EC6B0196
:1033B0007C01C114D104E104F10409F456C0F7FE04
:1033C00009C0F094E094D094C094C11CD11CE11CBD
:1033D000F11CCDE2C093A504C701B60128EE33E08D
:1033E00040E050E00E9400EB8AE0882E912CA12C56
:1033F000B12CCA01B901A50194010E9400EB605DE6
:103400006093A6048EE28093A704C701B60124E668
:1034100030E040E050E00E9400EBCA01B901A50194
:1034200094010E9400EB605D6093A804C701B6019F
:10343000A50194010E9400EBC62FCA01B901A501A4
:1034400094010E9400EB605D6093A904C05DC0938D
:10345000AA0485EA94E0CF91FF90EF90DF90CF909F
:10346000BF90AF909F908F900895C0E2B3CF8F929E
:103470009F92AF92BF92CF92DF92EF92FF92FC01A8
:10348000C080D180E280F38020E030E048EC52E45C
:10349000C701B6010E9419E54B015C0120E030E054
:1034A000A901C701B6010E94B4E420E030E040EA7F
:1034B00050E487FF04C020E030E040EA50ECC50152
:1034C000B4010E943CEB20E030E040E251E40E9475
:1034D00018EC0E9480EC9B018BE237FF05C022278D
:1034E0003327261B370B8DE28093A504C90168EEB4
:1034F00073E00E9429EECB01EAE0F0E0BF010E94F8
:1035000029EE805D8093A604C90164E670E00E9404
:1035100029EECB01BF010E9429EE805D8093A704B4
:10352000C901BF010E9429EE282FCB01BF010E94D3
:1035300029EE805D8093A8048EE28093A904205D2B
:103540002093AA0485EA94E0FF90EF90DF90CF905B
:10355000BF90AF909F908F9008958F929F92AF925F
:10356000BF92CF92DF92EF92FF92CF93FC01C08087
:10357000D180E280F38020E030E04AE754E4C701E4
:10358000B6010E9419E54B015C0120E030E040E209
:1035900051ECC701B6010E94B4E4181654F420E0BF
:1035A00030E048EC52E4C701B6010E9462ED87FDAD
:1035B00086C020E030E0A901C701B6010E94B4E452
:1035C00087FF6EC060E070E080EA90ECA501940196
:1035D0000E943CEB20E030E040E251E40E9418EC15
:1035E0000E9480EC6B017C01F7FC5FC020E137E2B8
:1035F00040E050E00E9400EBCA01B9012AE030E04F
:1036000040E050E00E9400EB605D6093A504C701BC
:10361000B60128EE33E040E050E00E9400EB9AE073
:10362000892E912CA12CB12CCA01B901A5019401BC
:103630000E9400EB605D6093A604C701B60124E61A
:1036400030E040E050E00E9400EBCA01B901A50162
:1036500094010E9400EB605D6093A7048EE280936A
:10366000A804C701B601A50194010E9400EBC62F72
:10367000CA01B901A50194010E9400EB605D60934D
:10368000A904C05DC093AA0485EA94E0CF91FF909D
:10369000EF90DF90CF90BF90AF909F908F90089564
:1036A00060E070E080EA90E491CFF094E094D094F0
:1036B000C094C11CD11CE11CF11C6DE2A6CF20E01E
:1036C00030E0A901C701B6010E94B4E487FF6AC0D7
:1036D00060E070E080EA90ECA50194010E943CEB70
:1036E00020E030E040E251E40E9418EC0E9480ECBF
:1036F0004B015C0120E030E0A901C701B6010E9446
:1037000062ED87FD0BC020E030E040E251E4C701EC
:10371000B6010E94B4E460E287FD13C0B7FC47C065
:10372000C501B40128EE33E040E050E00E9400EB18
:10373000CA01B9012AE030E040E050E00E9400EB0D
:10374000605D6093A604C501B40124E630E040E06A
:1037500050E00E9400EB8AE0C82ED12CE12CF12C25
:10376000CA01B901A70196010E9400EB605D609358
:10377000A7048EE28093A804C501B401A7019601B5
:103780000E9400EBC62FCA01B901A70196010E9451
:1037900000EB605D6093A904C05DC093AA0486EA53
:1037A00094E074CF60E070E080EA90E495CFB0944C
:1037B000A09490948094811C911CA11CB11C6DE27A
:1037C000C0CF9C0197FF26C0EE27FF27E81BF90B0F
:1037D0002D398FEF38070CF05DC08DE28093A70480
:1037E000CF0164E670E00E9429EECB012AE030E0D0
:1037F000B9010E9429EE805D8093A804CF01B90130
:103800000E9429EECB01B9010E9429EE805D8093D0
:10381000A9042AC0283E83E03807B4F1C90168EE44
:1038200073E00E9429EECB01EAE0F0E0BF010E94C4
:1038300029EE805D8093A704C90164E670E00E94D0
:1038400029EECB01BF010E9429EE805D8093A80480
:10385000C901BF010E9429EECB01BF010E9429EEE0
:10386000805D8093A904F901CF016AE070E00E94B5
:1038700029EE805D8093AA0487EA94E008958DE2A2
:1038800037FDC5CF80E2C3CFF90180E22436310590
:103890000CF0A4CF80E28093A7048093A804EA30C0
:1038A000F1056CF38DE237FF80E28093A804CF012D
:1038B0006AE070E00E9429EE605D6093A904D4CFB5
:1038C0009C01EAE0F0E0BF010E9429EE805D809358
:1038D000AA042A303105CCF0CB01BF010E9429EEA9
:1038E000805D8093A9042436310594F0C90164E613
:1038F00070E00E9429EECB01BF010E9429EE805D9D
:103900008093A80488EA94E008958AEA94E00895F0
:1039100089EA94E008959C0197FD2DC080E2243649
:1039200031055CF0C90164E670E00E9429EECB012C
:103930006AE070E00E9429EE805D8093A80480E236
:103940002A3031055CF0EAE0F0E0C901BF010E94D5
:1039500029EECB01BF010E9429EE805D8093A9046E
:10396000C9016AE070E00E9429EE805D8093AA049C
:1039700088EA94E008953195219531098DE2DDCFF3
:1039800024E6829FC001112481589F4F6FEF70E0A1
:103990000E9429EE262F81E3643609F080E28093AD
:1039A000A70490E22A3040F03AE0822F632F0E9471
:1039B00009EE0E9409EE905D9093A804822F6AE0C0
:1039C0000E9409EE905D9093A90485E28093AA0479
:1039D00087EA94E00895FC018081089560912002B7
:1039E00070912102072E000C880B990B0E94BAE4FB
:1039F0002AE037ED43E25CE30E9419E52091F607E7
:103A00003091F7074091F8075091F9070E9419E5A6
:103A100060935D0270935E0280935F0290936002F8
:103A2000089580917B048093B608089580917B046B
:103A30008093B60808950C94482780912F1288230C
:103A4000C1F0815080932F12E4E8F0E1882351F017
:103A50008150990B2BE1289FF001299FF00D112433
:103A6000EF5DFE4E8BE1A9E6B0E101900D928A95E3
:103A7000E1F720912F12211105C080913912806247
:103A80008093391281E090E0A0E0B0E0211103C002
:103A900080E090E0DC018093BA079093BB07A0938D
:103AA000BC07B093BD071092B30781E08093CA07AB
:103AB00083E0809341020895CF93DF9300D01F925B
:103AC000CDB7DEB70E94BAE42AE037ED43E25CE30B
:103AD0000E9419E569837A838B839C83CE010196CA
:103AE00091DB0F900F900F900F90DF91CF91089581
:103AF000CF93DF93EC01CB01BA010E94BAE42AE034
:103B000037ED43E25CE30E9419E5688379838A8399
:103B10009B83DF91CF910895CF93DF93EC01CB018D
:103B2000BA010E94BAE42AE037ED43E25CE30E9466
:103B300019E5688379838A839B83DF91CF91089508
:103B4000CF93DF93EC01CB01BA010E94BAE42FE6D8
:103B500032E143E85AE30E9419E5688379838A8356
:103B60009B83DF91CF910895CF93DF9300D01F9275
:103B7000CDB7DEB70E94BAE42AE037ED43E25CE35A
:103B80000E9419E569837A838B839C83CE01019619
:103B9000E4DC0F900F900F900F90DF91CF9108957C
:103BA000CF93DF93EC01CB01BA010E94BAE46883A2
:103BB00079838A839B83DF91CF910895CF92DF929F
:103BC000EF92FF920E94BAE46B017C0120E030E0AA
:103BD000A9010E94B4E420E030E040E05FE387FF09
:103BE00004C020E030E040E05FEBC701B6010E9476
:103BF0003CEB0E9480ECCB01FF90EF90DF90CF90E8
:103C00008ACE0E94BAE40E9480ECCB0184CECF938E
:103C1000DF93EC01CB01BA010E94BAE40E9480EC70
:103C200079836883DF91CF9108950E94BAE423E3FA
:103C300033E343E250E40E9419E50E9485EC862FAD
:103C40009FCECF93DF93EC01CB01BA010E94BAE47F
:103C500023E333E343E250E40E9419E50E9485EC3C
:103C60006883DF91CF910895CF93DF9300D01F92A7
:103C7000CDB7DEB769837A838B839C8360E2CE0104
:103C800001965FDB0F900F900F900F90DF91CF9117
:103C900008950E94BAE42FE632E143E85AE30E9415
:103CA00019E5E2CFFC0184910895AF92BF92CF92C3
:103CB000DF92EF92FF920F931F93CF93DF93EC016C
:103CC0005B018A01FB01199587FD16C0C82ED12C16
:103CD000F12CE12C2196F801C082D182E282F3829C
:103CE000CE01DF91CF911F910F91FF90EF90DF9068
:103CF000CF90BF90AF900895982F907E903CA9F4FC
:103D00008F7190E0B0E0A0E06C017D0126E0CC0C6A
:103D1000DD1CEE1CFF1C2A95D1F7CE010196F501A2
:103D200019958F73C82A2296D6CF982F907F903EF0
:103D300011F58F7090E0B0E0A0E06C017D0186E0AD
:103D4000CC0CDD1CEE1CFF1C8A95D1F7CE01019630
:103D5000F50119958F73C82A96E0CC0CDD1CEE1C7A
:103D6000FF1C9A95D1F7CE010296F50119958F7334
:103D7000C82A2396B0CF982F987F903F79F5877007
:103D800090E0B0E0A0E06C017D01F6E0CC0CDD1C21
:103D9000EE1CFF1CFA95D1F7CE010196F50119959D
:103DA0008F73C82AA6E0CC0CDD1CEE1CFF1CAA9564
:103DB000D1F7CE010296F50119958F73C82AB6E0A6
:103DC000CC0CDD1CEE1CFF1CBA95D1F7CE0103967E
:103DD000F50119958F73C82A24967DCF982F9C7F63
:103DE000983FE1F5837090E0B0E0A0E06C017D01C8
:103DF00056E0CC0CDD1CEE1CFF1C5A95D1F7CE0111
:103E00000196F50119958F73C82A66E0CC0CDD1C6C
:103E1000EE1CFF1C6A95D1F7CE010296F5011995AB
:103E20008F73C82A76E0CC0CDD1CEE1CFF1C7A9543
:103E3000D1F7CE010396F50119958F73C82AE6E0F4
:103E4000CC0CDD1CEE1CFF1CEA95D1F7CE010496CC
:103E5000F50119958F73C82A25963DCF982F9E7F1F
:103E60009C3F09F049C0817090E0B0E0A0E06C0197
:103E70007D0186E0CC0CDD1CEE1CFF1C8A95D1F781
:103E8000CE010196F50119958F73C82A96E0CC0CE6
:103E9000DD1CEE1CFF1C9A95D1F7CE010296F501B0
:103EA00019958F73C82A26E0CC0CDD1CEE1CFF1C74
:103EB0002A95D1F7CE010396F50119958F73C82A7B
:103EC00036E0CC0CDD1CEE1CFF1C3A95D1F7CE0180
:103ED0000496F50119958F73C82A46E0CC0CDD1CB9
:103EE000EE1CFF1C4A95D1F7CE010596F5011995F8
:103EF0008F73C82A2696EFCE982F907C903841F485
:103F0000807C803869F42196CE01F5011995F8CFAF
:103F10008E7F8D3F28F02196CE01F5011995F8CFBF
:103F2000C12CD12C7601D7CE1F93CF93DF9300D035
:103F30001F92CDB7DEB710E0AE014F5F5F4F6BEE63
:103F40007CE1B3DE49815A816B817C81452B462B14
:103F5000472B11F01F5FF0CF812F0F900F900F9024
:103F60000F90DF91CF911F910895089590E080E028
:103F7000089590914E05E92FF0E0E75EFE4E8083B4
:103F80009F5F943040F490934E058091D2068F5FEE
:103F90008093D206089510924E05F7CF282F909166
:103FA0006A08833021F495FD0FC094FD0FC0892F5E
:103FB00090E0B0E0A0E004C0B695A79597958795EE
:103FC0002A95D2F78170089581E0089580E00895E0
:103FD0004F925F926F927F928F929F92AF92BF9219
:103FE000CF92DF92EF92FF92CF93DF9300D000D079
:103FF000CDB7DEB79E838D83DC014D905D906D90D3
:104000007C90139714968D909D90AD90BC901797CF
:1040100018968D919D910D90BC91A02D89839A83C6
:10402000AB83BC83A3019201C301B2010E9419E5D5
:104030006B017C01A5019401C501B4010E9419E541
:104040009B01AC01C701B6010E943CEB6B017C01F6
:1040500029813A814B815C81CA01B9010E9419E52D
:104060009B01AC01C701B6010E943CEB0E94A8ED88
:104070009B01AC0160E070E080E89FE30E9418ECD7
:104080006B017C01AC019B01C301B2010E9419E5E7
:10409000ED81FE816083718382839383A701960102
:1040A000C501B4010E9419E5AD81BE8114966D93DE
:1040B0007D938D939C931797A701960169817A81CF
:1040C0008B819C810E9419E5ED81FE81608771875B
:1040D0008287938726960FB6F894DEBF0FBECDBFBA
:1040E000DF91CF91FF90EF90DF90CF90BF90AF9096
:1040F0009F908F907F906F905F904F9008950F9357
:104100001F930E9493690091EC101091ED10209183
:10411000EE103091EF10011511052105310509F060
:1041200040C02091F2102223C9F1E091F0102150FB
:104130002093F21021E02E0F2093F0103091F31015
:10414000231302C01092F01024E0E29FF00111242A
:10415000EC50FF4E00811181228133810093E810E1
:104160001093E9102093EA103093EB10600F711F49
:10417000811D911D6093EC107093ED108093EE10F3
:104180009093EF108091EA109091EB10892B31F011
:1041900080910B0180958072809309011F910F918E
:1041A0000895601B710B820B930B97FDF7CF8091E5
:1041B0000B018072809309011092EC101092ED10A7
:1041C0001092EE101092EF10E9CFCF92DF92EF92A3
:1041D000FF92CF93C82F0E9493696B017C0124EA60
:1041E00030E74DE75FE36091770470917804809148
:1041F000790490917A040E94B4E487FD18C08AEF94
:1042000090E0A0E0B0E08C0D9D1DAE1DBF1D809321
:10421000880490938904A0938A04B0938B04C0937C
:104220000102CF91FF90EF90DF90CF90089580E052
:1042300090E0DC01E8CF0C94EDA30C94EDA36FE4C7
:1042400072E383E00C9418D764E474E382E00C9486
:1042500018D768E474E381E00C9418D76CE474E335
:1042600080E00C9418D7EF92FF920F931F938CE18C
:10427000E82E83E1F82E10E000E02FE633E149E379
:1042800057E26EE173E183E293E10E942ABD1F9140
:104290000F91FF90EF900895CF92DF92EF92FF92EF
:1042A0000F931F93CF93DF93CDB7DEB7CDB6DEB6B6
:1042B0008091D8076BEC77E0882311F068ED77E008
:1042C000FB0101900020E9F7CF01861B970B0196B7
:1042D0002DB73EB7281B390B0FB6F8943EBF0FBE63
:1042E0002DBF0DB71EB70F5F1F4F80E2EDB7FEB7B2
:1042F0008183C80101960E9494EE82E9E82E83E151
:10430000F82E24E933E14AE651E560EA73E187EAF1
:1043100093E10E942ABD0FB6F894DEBE0FBECDBE5B
:10432000DF91CF911F910F91FF90EF90DF90CF9091
:104330000895CF93DF9300D01F92CDB7DEB7FC0175
:1043400080819181A281B38180935502909356021E
:10435000A0935702B093580280E090E0A8E4B2E442
:1043600089839A83AB83BC83CE0101960E94388FE8
:104370000F900F900F900F90DF91CF9108950F93B2
:104380001F93522F209104113091051128173907DE
:1043900039F190930511809304118B0130E020E0F6
:1043A0000093BA071093BB072093BC073093BD0757
:1043B0004093B3075093B40780509B4421F410926C
:1043C0008D041092740481E00E949AA40E94A4A417
:1043D00082E08093410281E08093CA071092B20785
:1043E0001F910F91089521E020938D04609377042D
:1043F000709378048093790490937A0420E040E0ED
:1044000070E060E08091AB079091AC07B8CF6DECA5
:104410007CEC8CEC9CE3E7CF6DEC7CEC8CEC9DE3CE
:10442000E2CF60E070E080E89FE3DDCF60E070E025
:1044300080E291E4D8CF8DEF93E190935005809383
:104440004F0520E040E070E060E08DE597E297CF17
:1044500081E080938D041092650820E040E070E0D8
:1044600060E08BE392E28BDF8DEF93E19093500558
:1044700080934F05089580914102882331F041E0F7
:1044800063E872E181E00E9411BA8091650887704B
:10449000873039F420E040E070E060E083E692E2AB
:1044A0006ECF089520E040E070E060E080E594E3A6
:1044B00066DF81E08093750484ED91E1909350056F
:1044C00080934F05089580914102882331F041E0A7
:1044D0006BED71E181E00E9411BA8091B1071092F9
:1044E000B107882319F010927604DCCF0895CF939A
:1044F000DF9380914102882341F06091A204709182
:10450000A30441E081E00E9411BA809199048111D5
:104510001AC081E080939904C0910411D0910511D3
:1045200020E040E070E060E087E792E228DF0E9450
:10453000C07E1092990420E040E070E060E0CE017F
:10454000DF91CF911CCFDF91CF910895CF93DF936F
:1045500000D000D01F921F92CDB7DEB71D821E8201
:104560001F82188640E050E060EA70E449835A8375
:104570006B837C83AE014B5F5F4FBE016F5F7F4FEC
:104580000E947DB88CE295E19093A3048093A204ED
:10459000AEDF8DEC9CECACECBCE3809377049093A5
:1045A0007804A0937904B0937A0420E040E070E0AE
:1045B00060E084E494E3E3DE28960FB6F894DEBF6F
:1045C0000FBECDBFDF91CF910895CF93DF9300D081
:1045D00000D01F921F92CDB7DEB7CE01019628E022
:1045E000FC0111922A95E9F7B1DF28960FB6F894ED
:1045F000DEBF0FBECDBFDF91CF9108958F929F9206
:10460000AF92BF92CF92DF92EF92FF92CF93DF9360
:1046100000D000D01F921F92CDB7DEB72BED3FE048
:1046200049E450E4FC0160817181828193810E94A0
:1046300019E520E030E044E353E40E9418EC6B01FC
:104640007C010E9415EC4B015C01C701B6010E9480
:104650009EED6B017C0120E030E04AEA52E4C501A6
:10466000B4010E9419E569837A838B839C8320E0DF
:1046700030E04AEA52E4C701B6010E9419E56D83B1
:104680007E838F839887CE01019660DF28960FB6D0
:10469000F894DEBF0FBECDBFDF91CF91FF90EF90BA
:1046A000DF90CF90BF90AF909F908F900895CF9361
:1046B000DF9300D01F92CDB7DEB780E090E0A2E597
:1046C000B3E489839A83AB83BC83CE01019696DFE2
:1046D0000F900F900F900F90DF91CF910895CF938F
:1046E000DF9300D01F92CDB7DEB780E090E0A5EA5F
:1046F000B3E489839A83AB83BC83CE0101967EDFCA
:104700000F900F900F900F90DF91CF910895CF935E
:10471000DF9300D01F92CDB7DEB780E090E0A4EB2E
:10472000B2E489839A83AB83BC83CE01019666DFB2
:104730000F900F900F900F90DF91CF9108950E94EE
:10474000CCA40E94A4A481E00C949AA4CF92DF92FE
:10475000EF92FF920F931F93CF93DF9300D000D07F
:10476000CDB7DEB78A0146E0469F9001479F300DE6
:104770001124BC01620F731F46E050E0CE01019688
:104780000E94FAE3C980DA80EB80FC80F801408166
:104790005181628173818FEF9FEFC416D506E606C3
:1047A000F70640F081E090E04C155D056E057F0551
:1047B00008F080E026960FB6F894DEBF0FBECDBF9E
:1047C000DF91CF911F910F91FF90EF90DF90CF90ED
:1047D00008954F925F926F927F928F929F92AF92C5
:1047E000BF92CF92DF92EF92FF9240904D02509095
:1047F0004E0260904F027090500280905102909053
:104800005202A0905302B0905402C0905502D09032
:104810005602E0905702F09058020E944F7E0E948C
:1048200046930E94246680E00E94379281E00E94B5
:10483000379282E00E9437920E949D7EA3019201EE
:1048400060914D0270914E0280914F029091500202
:104850000E94B4E481111CC0A50194016091510231
:104860007091520280915302909154020E94B4E4DC
:1048700081110EC02091550230915602409157028D
:1048800050915802C701B6010E94B4E4882371F028
:10489000FF90EF90DF90CF90BF90AF909F908F9060
:1048A0007F906F905F904F900C94619AFF90EF9083
:1048B000DF90CF90BF90AF909F908F907F906F9040
:1048C0005F904F9008952F923F924F925F926F9218
:1048D0007F928F929F92AF92BF92CF92DF92EF9290
:1048E000FF920F931F93CF93DF93CDB7DEB72C9733
:1048F0000FB6F894DEBF0FBECDBF9C878B878B01B0
:104900001A013E832D83D9018D919D910D90BC910B
:10491000A02D89839A83AB83BC83FA01C080D180A8
:10492000E280F380DB018D909D90AD90BC90EB8593
:10493000FC852481358146815781C501B4010E94DF
:1049400019E52B013C01AB85BC8550962D913D911D
:104950004D915C915397C701B6010E9419E59B01E7
:10496000AC01C301B2010E943CEB2B013C01EB8581
:10497000FC85248D358D468D578D69817A818B819B
:104980009C810E9419E59B01AC01C301B2010E9408
:104990003CEB6F83788789879A87AB85BC851896AF
:1049A0002D913D914D915C911B97C501B4010E94E1
:1049B00019E52B013C01EB85FC8524893589468965
:1049C0005789C701B6010E9419E59B01AC01C301DB
:1049D000B2010E943CEB2B013C01AB85BC8590965B
:1049E0002D913D914D915C91939769817A818B8155
:1049F0009C810E9419E59B01AC01C301B2010E9498
:104A00003CEB2B013C01EB85FC852081318142810F
:104A10005381C501B4010E9419E54B015C01AB85CE
:104A2000BC851C962D913D914D915C911F97C701BE
:104A3000B6010E9419E59B01AC01C501B4010E94B9
:104A40003CEB6B017C01EB85FC85208D318D428D2B
:104A5000538D69817A818B819C810E9419E59B012C
:104A6000AC01C701B6010E943CEBD8016D937D9368
:104A70008D939C9313978F819885A985BA85F101B1
:104A800080839183A283B383AD81BE814D925D9279
:104A90006D927C9213972C960FB6F894DEBF0FBEE2
:104AA000CDBFDF91CF911F910F91FF90EF90DF90DD
:104AB000CF90BF90AF909F908F907F906F905F90BE
:104AC0004F903F902F9008950F931F938091480827
:104AD000813019F50E9493690091B0041091B104DE
:104AE0002091B2043091B304601B710B820B930BC5
:104AF00028EE33E040E050E00E94DEEA6091AC0432
:104B00007091AD048091AE049091AF04620F731F59
:104B1000841F951F1F910F91089560914408709113
:104B200045088091460890914708D6CF10924808D2
:104B30001092B0041092B1041092B2041092B30417
:104B400010924408109245081092460810924708A7
:104B50001092AC041092AD041092AE041092AF0407
:104B60000895809148088130E1F08230C1F4ACDFD3
:104B70006093AC047093AD048093AE049093AF0443
:104B800081E0809348080E9493696093B004709319
:104B9000B1048093B2049093B30481E00895C6DF1A
:104BA000EFCF80E00895809148088150823070F402
:104BB000109248080E9493696093440870934508D6
:104BC000809346089093470881E0089580E0089517
:104BD0000F931F93CF93DF938C01EB019091F21011
:104BE0002091F310921304C08ADA0E94E57AF6CF7E
:104BF0008091F11034E0839FF0011124EC50FF4EBE
:104C000011830083D383C2839F5F9093F2108F5FE1
:104C1000281739F08093F110DF91CF911F910F91F8
:104C200008951092F110F8CF63E972E084E690E005
:104C3000CFDF6AEB72E084E690E0CACF0E94B6A3B1
:104C40008111F2CF68EB71E084E190E0C1CF0E9466
:104C500087958111E9CF68EB71E084E190E0B8CFEE
:104C60000F931F93CF93DF936F3F11F410920D10AA
:104C700020910D1021111CC08C010E9403E4800FB3
:104C8000911FEC01C01BD10BC932D1053CF001973B
:104C9000FC012491207C2038D1F3F3CFDD27AE0135
:104CA000B80184EE9FE00E9424E4CC51D04F1882DA
:104CB000DF91CF911F910F9108958AE395E1909331
:104CC000A3048093A20413DC60E085E692E0C8DFD1
:104CD00086E395E19093500580934F050895CF9317
:104CE000DF93CDB7DEB78E8190910D10891768F0F4
:104CF00080930D109E01275F3F4F4F81588568E2DA
:104D000070E084EE9FE00E947CE4DF91CF910895F3
:104D10000F931F930E94936900919E0410919F042A
:104D20002091A0043091A104601B710B820B930BA6
:104D300097FD0EC083B185FB882780F991E0892714
:104D40001E9B82609091090196FF846080939D0470
:104D500080919D04817090919D0491FD826090915D
:104D60009C04981749F0813009F148F0823079F0BD
:104D7000833091F080939C041F910F91089591309E
:104D800079F09230B9F790919B0491500CC099231F
:104D900039F09330C1F3EECF9130A9F3923051F74F
:104DA00090919B049F5F90939B04E4CF992359F3C8
:104DB000933001F7F5CFCF93DF93C1DC25982D9A7F
:104DC00026982E9AEAE0F1E080818F7B8083CBE009
:104DD000D1E0888180958074A9E0B1E08C938081D6
:104DE0008E7F80838881809581708C9382E0809310
:104DF00098048EDF10929B04DF91CF910895E0918B
:104E00007404E63010F581E08E0F809374044091B5
:104E1000BA075091BB076091BC077091BD07909194
:104E2000B3078091B40728E0E29FF0011124EC5B06
:104E3000FB4F20910411309105113183208342836F
:104E4000538364837583968387830895CF93DF9319
:104E5000EC01D5DF20E040E070E060E0CE01DF91C2
:104E6000CF918DCA20E040E070E060E080E09BE4FC
:104E700086CA10924E0810924002809139128064C6
:104E80008093391290DE60E08EE195E1E9DEEACFB1
:104E9000E0917404EE2381F0E150E093740488E023
:104EA000E89FF0011124EC5BFB4F62817381278145
:104EB00046818081918163CAD5CF80914102882348
:104EC00031F041E063E872E181E00E9411BA809123
:104ED00065088770873009F4DBCF0895CF93DF939F
:104EE00000D01F92CDB7DEB780917504811116C036
:104EF00080E090E0A0EAB0E489839A83AB83BC832E
:104F0000CE01019616DA84EA91E19093A30480938E
:104F1000A204EDDA10928D04BBDF86DE809141029F
:104F2000882331F041E064EA71E181E00E9411BA26
:104F300082E0809341020F900F900F900F90DF91CD
:104F4000CF9108951F93CF93DF9300D01F92CDB7D9
:104F5000DEB710E0AE014F5F5F4F62E57EE10E9479
:104F6000551E49815A816B817C81452B462B472BED
:104F700011F01F5FEFCF812F0F900F900F900F90C8
:104F8000DF91CF911F9108950F931F93CF93DF93DC
:104F900000D01F92CDB7DEB700916302109164027A
:104FA000209165023091660209831A832B833C832A
:104FB00090911811691708F060E0FE01E60FF11DED
:104FC0009181890F80680F900F900F900F90DF9163
:104FD000CF911F910F910C949AA4FC01A081B181F3
:104FE0001C92A281B3818C918F5F8C930280F3819C
:104FF000E02D608180E0C8CF0F931F93CF93DF93A4
:10500000EC0160E088850E945C6860E08D810E9410
:10501000926761E08E810E94926710E060E08F816C
:105020000E94926761E08F810E94926788850E944A
:105030006A67082F60E08F810E94926761E08F812C
:105040000E94926760E08F810E949267002311F0B6
:10505000115021F761E088850E945C6860E08E81D4
:10506000DF91CF911F910F910C949267CF92DF92B5
:10507000EF92FF920F931F93CF93DF938C017C01EC
:1050800089E0E80EF11CD0E0C0E0C62ED12C61E032
:10509000F70181917F010E945C68B6010C2E02C06D
:1050A000759567950A94E2F76170F70131978081F1
:1050B0000E9492672196C430D10549F761E0F8015A
:1050C00087810E94926760E0F8018781DF91CF912C
:1050D0001F910F91FF90EF90DF90CF900C9492670B
:1050E0001F93CF93DF93EC01162F642F8D810E94C5
:1050F000926761E08E810E945C6860E08E810E9410
:105100009267612F70E084E0759567958A95E1F765
:10511000CE01ACDF612FCE01DF91CF911F91A6CFE1
:10512000CF93DF93EC0141E0DBDFCE0165DFDF9160
:10513000CF910895EF92FF920F931F93CF93DF9338
:1051400000D000D01F921F92CDB7DEB78E010F5F47
:105150001F4FD80130E020E0FB01E20FF31FE49184
:10516000ED932F5F3F4F28303105B1F728E08202E1
:10517000C001112480640E949AA4780188E0E80E9E
:10518000F11CF80161918F0186E091E1C9DFE01621
:10519000F106B9F728960FB6F894DEBF0FBECDBF63
:1051A000DF91CF911F910F91FF90EF9008950F9392
:1051B0001F93CF93DF93CDB7DEB72E970FB6F8943A
:1051C000DEBF0FBECDBF8A011E861D866F83788726
:1051D00089879A872FEF2B876038710581059105A4
:1051E00030F486E091E19CDF81E090E02DC09E01EB
:1051F000235F3F4FAE01495F5F4F69EB70E08FED7A
:105200009CE00E9446A497FD2AC08D859E8526E0DD
:10521000289FB001299F700D11246152734F46E001
:1052200050E0CE0101960E94FAE36D8186E091E1A3
:1052300077DF01301105C1F26E816623A9F286E0A5
:1052400091E16EDF82E090E02E960FB6F894DEBF1B
:105250000FBECDBFDF91CF911F910F9108959E0199
:10526000235F3F4FAE01495F5F4F6AEE70E083E618
:1052700097E00E9446A497FD0BC08D859E8526E091
:10528000289FB001299F700D11246D59784FC7CF09
:105290006FE3A7CF4FEF5FEF8ACF4F925F926F928E
:1052A0007F928F929F92BF92CF92DF92EF92FF9266
:1052B0000F931F93CF93DF9300D000D01F921F92C4
:1052C000CDB7DEB77C013B016A014901FB0160817A
:1052D000FC01808159DEC114D10461F1FA82E982B6
:1052E0007C826B8201111FC0AE014B5F5F4FB40126
:1052F000C6010E94551E6C016D817E818F8198854B
:105300006115710581059105A9F0C4DFF701808160
:105310008F5F8083843140F3CE0101965EDEE4CF5F
:10532000B12C860129C08601B12C26C0452846280B
:105330004728B1F728960FB6F894DEBF0FBECDBF51
:10534000DF91CF911F910F91FF90EF90DF90CF9061
:10535000BF909F908F907F906F905F904F90089537
:10536000B39407C0B1102EC001151105C9F20F5F2B
:105370001F4F01151105A9F2AE014B5F5F4FB4013C
:10538000C6010E94551E6C014D805E806F8078843E
:105390004114510461047104A9F0F0E24F16510464
:1053A00061047104F9F2D301C2018D97A109B10919
:1053B0000297A105B10530F04BE244165104610497
:1053C000710471F6F7018081482F4B0D5527551F49
:1053D000453151052CF0853018F0CE010196FDDDE8
:1053E00081E0411451046104710409F480E0B80EB5
:1053F000F70180818B0D8083BB2009F497CFBA948D
:10540000AE014B5F5F4FB401C8010E94551E8C0175
:105410006D817E818F8198853DDFEECFCF92DF92C7
:10542000EF92FF9269017A01AFDDC701B601FF90EB
:10543000EF90DF90CF902ECFAF92BF92CF92DF92BE
:10544000EF92FF920F931F93CF93DF9300D01F92A1
:10545000CDB7DEB76C015B017A0110E000E00E15FC
:105460001F05E0F419821A821B821C82AE014F5F75
:105470005F4FB501C6010E94551E6C0169817A819A
:105480008B819C81611571058105910539F0A7011A
:10549000401B510B8CDE080F191FE1CFC8010F9084
:1054A0000F900F900F90DF91CF911F910F91FF9070
:1054B000EF90DF90CF90BF90AF900895DF92EF9282
:1054C000FF920F931F93CF93DF9300D01F92CDB71E
:1054D000DEB77C01062F142F112309F446C0AE015C
:1054E0004F5F5F4F62E57EE1C7010E94551E7C0160
:1054F00069817A818B819C81611571058105910596
:10550000A1F1DD24DA94D10E6D3371058105910589
:1055100081F06E3771058105910559F06A32710588
:105520008105910591F565E470E080E090E0B2DEE0
:105530001D2D602F70E089819A81AB81BC81CD9750
:10554000A105B105F9F480E390E0680F791F072EFB
:10555000000C880B990B9EDE115039F0412F50E062
:1055600062E57EE1C70168DF181B812F0F900F9065
:105570000F900F90DF91CF911F910F91FF90EF90BF
:10558000DF90089581E390E0E0CF84DE1D2DA4CF6D
:105590000F93CF93DF93EA01811101C020E2022E25
:1055A000000C330B440B550B80E038DF42E1609177
:1055B000F307CE0183DFC82FCC2339F060E270E01F
:1055C00080E090E067DEC150F7CF602F000F770BCF
:1055D000880B990BDF91CF910F915CCEAF92BF9268
:1055E000CF92DF92FF920F931F93CF93DF930E948E
:1055F000DABCC091B307D0E02DEFC22E23E1D22E4A
:105600003BEDA32E33E1B32EC11114C08091B50739
:10561000882309F462C080914102882359F081E017
:105620009091B507911180E003E023E04BE054E155
:105630006D2FAEDF809165088770FF24F39487306B
:1056400009F07FC082E0F82EC13009F07AC0809165
:10565000B507813009F458C080914102811164C0BE
:1056600092E0F92E11E01F0D80916408811118C09D
:105670001C1314C08091B5078C1709F486C0809163
:105680004102882359F081E09091B5079C1380E096
:105690000EE32EE340EF53E16D2F7ADF12E01F0D92
:1056A0001C1312C09091B507911709F47EC0809128
:1056B0004102882349F081E09C1380E000E22EE360
:1056C0004FED53E16D2F64DFCF5FDF5FD43009F022
:1056D0009BCF1F5F1093B4070DC08091B10710924C
:1056E000B107882309F497CFD3DB8091CA078823B9
:1056F00009F491CFDF91CF911F910F91FF90DF902F
:10570000CF90BF90AF9008958091B1071092B107EC
:10571000882309F4A1CF85E49FE298DB8091CA0732
:10572000882309F499CFE6CF81E09091B5079130B5
:1057300009F080E00EE32EE348E75AE26D2F28DF00
:105740008FCFFC128FCF9091B5079F1579F0809184
:105750004102882309F486CF81E09C1380E000E2B7
:105760002EE341E054E16D2F13DF7CCF8091B10730
:105770001092B107882359F3D0925005C0924F057B
:105780008091CA07882319F3B5CF8091B107109291
:10579000B107882309F473CF83E691E457DB809146
:1057A000CA07882309F46BCFA5CF8091B107109267
:1057B000B107882309F47BCFB0925005A0924F0522
:1057C0008091CA07882309F472CF94CF0F93CF93A7
:1057D000DF930E94DABCD091B307C0E0D11142C080
:1057E0008091B507882379F180914102882359F08F
:1057F00081E09091B507911180E003E023E047E15B
:1058000053E16C2FC5DE809165088770873009F001
:10581000D7C0D33009F07EC08091B507833009F43A
:1058200069C080914102882361F081E09091B507C1
:10583000933009F080E00EE32EE342EF52E16C2F4B
:10584000A7DE87E0BEC08091B1071092B107882320
:1058500059F21EDB8091CA07882331F2DF91CF9184
:105860000F910895D13009F58091B507813079F015
:1058700080914102882339F281E09091B5079130FF
:1058800009F080E00EE32EE348E053E1BACF8091C7
:10589000B1071092B107882359F38BE098E3D6DA69
:1058A0008091CA07882321F3D9CFD23009F0ABCF3A
:1058B0008091B507823081F080914102882309F4FC
:1058C000A2CF81E09091B507923009F080E00EE31D
:1058D0002EE34EEF52E195CF8091B1071092B107C0
:1058E000882351F38BE192E2B1DA8091CA078823D1
:1058F00019F3B4CF8091B1071092B107882309F44E
:1059000090CF87E593E2A2DA8091CA07882309F451
:1059100088CFA4CFD43011F58091B507843081F0C1
:1059200080914102882309F48CCF81E09091B507E2
:10593000943009F080E00EE32EE346EE52E17FCF93
:105940008091B1071092B107882351F38FE693E25B
:105950007DDA8091CA07882319F380CFD530C9F545
:105960008091B507853081F080914102882309F448
:1059700068CF81E09091B507953009F080E00EE3A3
:105980002EE34AED52E15BCF8091B1071092B1074F
:10599000882351F387E893E259DA8091CA07882374
:1059A00019F35CCF8091B1071092B1078823C1F041
:1059B00085EE92E24BDA8091CA07882389F04ECFB8
:1059C00083E0DF5FCF5FC43009F008CF8093B40776
:1059D00045CFD63009F035CF8091B507863011F329
:1059E00080914102882309F42CCF81E09091B50782
:1059F000963009F080E00EE32EE349EC52E11FCF30
:105A0000EF92FF920F931F93CF93DF930E94DABC24
:105A1000C091B30784E0F82EFC0ED2E0DC1B11E04D
:105A20001C1BEC2EE194C1112CC08091B50788237A
:105A3000B1F080914102882359F081E09091B5073F
:105A4000911180E003E023E046E951E16E2DA0DDF5
:105A5000CF5FFC12E8CF83E08093B4070BC0809146
:105A6000B1071092B107882321F312DA8091CA0797
:105A70008823F9F2DF91CF911F910F91FF90EF9062
:105A80000895C13011F58091B507813081F0809182
:105A900041028823E9F281E09091B507913009F045
:105AA00080E00EE32EE34AE851E1612FD0CF8091F0
:105AB000B1071092B107882351F382EE9AE3C6D959
:105AC0008091CA07882319F3D5CFC23009F0C0CF1F
:105AD0008091B507823089F080914102882309F4D2
